:100000004CC070C09CC06EC07BC66CC06BC06AC068
:1000100069C068C067C066C065C064C063C00902CB
:1000200022000101008032090400000103000000E9
:100030000921010100012216000705810308000AB9
:100040001201100100000008C016DF0500010102C6
:100050000001100344006900670069005500530067
:1000600042001C03640069006700690073007400AB
:1000700075006D0070002E0063006F006D000403BA
:1000800009040600FF0901A101150026FF007508FB
:1000900095010900B20201C0650511241FBECFE51C
:1000A000D2E0DEBFCDBF10E0A0E6B0E0EAEFF0E1C5
:1000B00002C005900D92A237B107D9F721E0A2E75F
:1000C000B0E001C01D92A93DB207E1F710E0CAE916
:1000D000D0E003C02297FE010AD8C839D107D1F772
:1000E000B7D709C88DCFA82FB92F80E090E041E0A5
:1000F00050EA609530E009C02D9182279795879549
:1001000010F084279527305EC8F36F5FA8F3089539
:10011000EADF8D939D930895A6E088279927AA95F5
:1001200069F00197E1F3B399FCCFB39BFECF81E077
:100130009927A6B3019611F0A871D9F70895CF9326
:10014000CFB7CF93C395B39BE9F7B39B10C0B39BD5
:100150000EC0B39B0CC0B39B0AC0B39B08C0B39B3B
:1001600006C0C091BC01C395C093BC01D5C00F921D
:10017000DF93C091BB01DD27CD53DE4F012EB39B32
:1001800003C0DF910F90E1CF2F930F931F934F93F5
:100190002FEF4F6F06B303FB20F95F933F9350E0BF
:1001A0003BE065C016B30126502953FDC89556B3F0
:1001B000012703FB25F92F7306B3B1F05027102751
:1001C00013FB26F906B22230F0F000C016B3012767
:1001D00003FB27F90126502906B22430E8F54F77B2
:1001E000206816B30000F6CF50274F7D206206B27C
:1001F000102F000000C006B300265029102713FB63
:1002000026F906B2E2CF4F7B06B3206400C0DACFF6
:1002100001265029187106B269F14E7F2160012F25
:1002200016B328C0002650294D7F06B22260102F39
:1002300029C0012650294B7F06B22460012F2DC012
:1002400016B301265029477F2860000006B22EC051
:100250004F7E06B3206130C0422706B34993002683
:100260005029102706B24FEF13FB20F9297F16B350
:1002700079F2187159F10126502906B2012703FBC2
:1002800021F9237F06B371F2002650293150D0F0B6
:1002900006B2102713FB22F9277E16B351F201266E
:1002A0005029012703FB06B223F92F7C49F20000F5
:1002B00006B3102713FB24F90026502906B22F7924
:1002C00039F270CF10E21ABF002719C03B503195A8
:1002D000C31BD04010E21ABF0881033C09F10B3464
:1002E000F9F02091B9011981110F1213EDCF4A8154
:1002F000441F093651F10D3211F0013E29F70093E8
:10030000C1013F915F914F911F910F912F91DF910B
:100310000F90CAB7C5FD16CFCF91CFBFCF9118951B
:100320002091C101222369F31091BF01112379F5B6
:1003300034307AF13093BF012093BA011091BB01A0
:100340003BE0311B3093BB0124C00091BF01013061
:10035000F4F40AE54F7049F43091670034FD1AC097
:1003600000936700C2EAD1E019C03091AD0134FDBD
:1003700011C00093AD01CEEAD1E010C0052710E016
:1003800000C021C0052710E0C89508BB14C03AE59D
:1003900001C032ED032EC0E0D0E032E017B31861A7
:1003A000C39A08B317BB58E120E84FEF20FF052799
:1003B00008BB279517951C3F28F700004552B0F75A
:1003C00020FF0527279508BB17951C3FB8F62991F4
:1003D0003A9561F7077E1091C001110F08BBC2501A
:1003E000D04011F01093B90110E21ABF086017B3A2
:1003F000177E402F477E54E05A95F1F708BB17BB94
:1004000048BB7FCF8FB9606F6EB98BE29BE19A9545
:10041000F1F700C08DB9B29BFECF96E19A95F1F746
:100420008DB9769BF3CF8BE18A95F1F700C08FB140
:100430009FEF9FB9C09A0895CF93C82FC298C09AD2
:1004400060E0E0DFC0986EE08FEFDCDF80FD0FC082
:1004500040E050E06C2F85E790E0EDD54AE050E0B9
:1004600060E070E085E790E061D280E011C06C2F21
:1004700070E06F5F7F4F4AE050E085E790E0CDD5B8
:100480004AE050E060E070E085E790E04FD281E024
:10049000CF910895C29AC29BFECF8BE18A95F1F766
:1004A00000C0C09886E18A95F1F7C298C09A089575
:1004B000C098C29AB29BFECF86E18A95F1F7C09AA6
:1004C0008BE18A95F1F700C00895CF93DF93D82F81
:1004D00085E790E065D2892BD9F085E790E073D26B
:1004E000C82F4AE050E060E070E085E790E01ED25F
:1004F000D130B1F440E050E06C2F85E790E09BD51F
:100500004AE050E060E070E085E790E00FD208C07C
:100510004AE050E060E070E085E790E007D2D8CF95
:100520008C2FDF91CF91089585E790E0EFD183E89C
:1005300091E0DEC24CE0682F83E891E0DAD283E8F4
:1005400091E0F7D2892B99F083E891E0E7D297FD0B
:1005500002C0682F01C060E085E790E0B0D14AE0BA
:1005600050E060E070E085E790E0E0D1E8CF81E026
:10057000ACCFFF920F931F93CF93DF93F82E81E0C0
:10058000A4DFC82FD0E0DC2FCC2781E09EDFC80F8E
:10059000D11D209711F481E025C07CDF8F2D880FBD
:1005A0004BDF00E010E00C171D077CF480E08DDFCE
:1005B00043DF8111F0CF4AE050E060E070E085E772
:1005C00090E0B4D10F5F1F4FEECF72DF81E07DDF8F
:1005D000882339F08F2DDF91CF911F910F91FF90DC
:1005E000A9CF80E0DF91CF911F910F91FF900895E7
:1005F000CF9381E06ADFC82F8C2FBBDF8823E1F324
:10060000CF910895DF92EF92FF920F931F93CF93B4
:10061000DF93C8E0D0E0F12C80E8E82EDF2CDE0C80
:10062000D1BE7ADD8C01043389E018070CF4FD2C6F
:10063000E694219799F78FEF8F0D81BFCF2DD0E0F2
:10064000219681B790E0C817D9078CF065DD8453F7
:10065000994097FF03C09195819591098017910763
:1006600014F4F1B68C0181B78F5F81BFEACFF1BE80
:10067000DF91CF911F910F91FF90EF90DF90089540
:10068000CF93DF938091BF01835087FDA8C09091E5
:10069000BB012091BA012D3209F09FC0883009F0CA
:1006A0009CC0CCE0D0E0C91BD109CD53DE4F83EC18
:1006B0008093A2018AE5809367001092730088817D
:1006C000807619F0CE01CCD17FC09A811092AB0117
:1006D0008981811106C01092AC012BEA31E082E0E1
:1006E0006FC0853019F49093C00167C0863009F05F
:1006F0004EC08B81813041F480E490E09093BE0144
:100700008093BD0182E13FC0823041F48EE190E0F0
:100710009093BE018093BD0182E235C08330F1F435
:10072000911108C08EE790E09093BE018093BD01C7
:1007300084E029C0913041F482E690E09093BE01BC
:100740008093BD018CE11FC09230E1F482E590E01E
:100750009093BE018093BD0180E115C0813241F4C8
:1007600080E390E09093BE018093BD0189E00BC0CF
:10077000823241F482E890E09093BE018093BD0103
:1007800086E101C080E090E4909373001DC0883042
:1007900069F0893019F49093C2010FC08A3049F092
:1007A0008B3059F48BE48093AE0107C022EC31E02A
:1007B00002C02BEA31E081E003C02BEA31E080E0A7
:1007C0003093BE012093BD019F81911104C09E8191
:1007D000981708F4892F809366001092BF018091CA
:1007E000670084FF46C0809166008F3F09F441C0D6
:1007F000C82F893008F0C8E08C1B80936600809178
:10080000A20198E889278093A201CC2331F120919D
:10081000BD013091BE018091730086FF0BC0A3EA39
:10082000B1E0F9018C2F8A0F94919D9331968A1330
:10083000FBCF09C0D901E3EAF1E08C2F8E0F9D9127
:1008400091938E13FCCF8FEF8C0F90E00196820F67
:10085000931F9093BE018093BD016C2F83EA91E0BA
:1008600057DCCC5FCC3019F08FEF80936600C093DB
:10087000670084E196B3987131F48150D9F71092F2
:10088000C0011092B901C1E08111C0E080917200F5
:100890008C1739F0C11103C0F894B4DE7894C0937A
:1008A0007200DF91CF910895AC9A8BB780628BBFB5
:1008B0008BE48093AE018AE58093AD0108951F9388
:1008C000CF93DF93162FFC0124813581F901E05885
:1008D000FF4FC081D181CE01019660E870E0BCD3AA
:1008E000D901AE57BF4F4D915C918417950741F0E8
:1008F000C20FD31F18839183808381E090E002C0F0
:1009000080E090E0DF91CF911F910895F894CCDFC3
:10091000BB9A80E0815039F0E1E2F1EA3197F1F7DA
:1009200000C00000F7CFBB98789408958F929F92F3
:10093000AF92BF92CF92DF92EF92FF92CF93DF936D
:1009400000D000D0CDB7DEB76A017B0120D24B01C9
:100950005C011C141D041E041F049CF418D2C61A4A
:10096000D70AE80AF90AC80CD91CEA1CFB1C6983DF
:100970007A838B839C8384DE69817A818B819C81DD
:10098000E6CF0F900F900F900F90DF91CF91FF90D7
:10099000EF90DF90CF90BF90AF909F908F90089591
:1009A000FC0122813381F901E058FF4F8081918160
:1009B00080589F4F329620813181821B930B60E8D3
:1009C00070E04AD30895FC0122813381F901EE578A
:1009D000FF4F80819181D901A058BF4F4D915C910B
:1009E0004817590769F0D901A80FB91F2C91019632
:1009F00060E870E031D391838083822F90E0089586
:100A00008FEF9FEF08958091FB009091FC0080583C
:100A10009F4F2091FD003091FE00821B930B60E8F8
:100A200070E01AD308958091FD009091FE0020910E
:100A3000FB003091FC002817390779F0FC01E558DC
:100A4000FF4F2081019660E870E006D39093FE008E
:100A50008093FD00822F90E008958FEF9FEF08951F
:100A6000CF93FC0180818076803259F5C181C130FD
:100A700069F4C9DF892B29F1D6DF8093740024E75C
:100A800030E03093BE012093BD011CC0C930C9F4D1
:100A9000E48120917F0130918001C901019660E8D5
:100AA00070E0DAD24091810150918201841795075C
:100AB00041F0D901A150BF4FEC93909380018093F6
:100AC0007F01C0E08C2FCF9108958CE690E0909349
:100AD0007600809375008FEF90E09093780080937C
:100AE00077008BE790E090937A00809379000895E7
:100AF00028C01092850140938401660F6160609365
:100B0000860161E0640F86E891E0D1D0882319F076
:100B1000D1D0811101C020C080E00895E09185010D
:100B2000EF5FE0938501F0E0EA57FE4F808190E0AF
:100B300008958091840190E020918501821B9109A4
:100B40000895C09AC29ABA9AB89A8FEF8FB98AE27A
:100B50008DB980EF8EB908958091980108958EB96E
:100B60008BE29BE19A95F1F700C08DB9B29BFECF65
:100B700096E19A95F1F78DB9769BF3CF8BE18A9543
:100B8000F1F700C08FB19FEF9FB9B89A0895C29A4C
:100B9000C29BFECF8BE18A95F1F700C0C09886E139
:100BA0008A95F1F7C298C09A779905C083E080933F
:100BB000980180E0089581E00895AF92BF92CF92AE
:100BC000DF92EF92FF920F931F93CF93DF93EC018D
:100BD000C62E80919801816080939801988190FD44
:100BE00003C0826080939801D2DF882309F454C047
:100BF000FC2C8E01BB24BA94AA24A39420919801C2
:100C00002370C8010196222371F1C298D82EE92ED3
:100C1000F80180818FB980EFA2DFB8988EEF9FDF57
:100C20009091980180FF0BC0892F817090FF05C0C3
:100C300081E08093980180E02FC092E00DC0892F61
:100C40008570843061F4888181608883A0929801E6
:100C50009EDF811118C09AE0909398011DC09E7F7D
:100C60009093980113C0B898D82EE92E80EF77DFC3
:100C7000F8018083F1E0FF1202C0BFB801C01FB8C5
:100C80008EEF6DDF03C0FC2CDC2EED2EFA9419F0F4
:100C90000D2D1E2DB3CF81E0DF91CF911F910F91CC
:100CA000FF90EF90DF90CF90BF90AF90089510929B
:100CB000980183CFC098C29AB29BFECF86E18A95F5
:100CC000F1F7C09A8BE18A95F1F700C09EB1892FA8
:100CD000807295FD04C094E090939801089581E09E
:100CE000089583B7887F83BF8AB58C7F81608ABD72
:100CF00083B7877F83BF83B7887F836083BF08956F
:100D000078941F920F920FB60F9211242F933F9356
:100D10008F939F93AF93BF9380919A0190919B0182
:100D2000A0919C01B0919D01309199012CE7230F76
:100D30002D3728F02FEF230F0196A11DB11D209311
:100D4000990180939A0190939B01A0939C01B09389
:100D50009D0180919E0190919F01A091A001B09171
:100D6000A1010196A11DB11D80939E0190939F0149
:100D7000A093A001B093A101BF91AF919F918F91DA
:100D80003F912F910F900FBE0F901F9018952FB786
:100D9000F89460919A0170919B0180919C019091CF
:100DA0009D012FBF0895789480B7806880BF80B779
:100DB000806480BF8CB580648CBD8FEF8DBD80B7A3
:100DC000807F876080BF89B7846089BF8ADF86B1F2
:100DD000876086B9379A08950F931F93CF93DF9357
:100DE000EC018B01F80161918F01662341F0E881EC
:100DF000F9810190F081E02DCE010995F3CFDF91CB
:100E0000CF911F910F910895EF92FF920F931F932F
:100E1000CF93DF937C018A01EB01060F171FC017E8
:100E2000D10751F06991D701ED91FC910190F081CA
:100E3000E02DC7010995F3CFDF91CF911F910F915D
:100E4000FF90EF900895DC01ED91FC910190F0810D
:100E5000E02D642F09944F925F926F927F928F9250
:100E60009F92AF92BF92CF92DF92EF92FF920F9339
:100E70001F93CF93DF93CDB7DEB7A0970FB6F8944B
:100E8000DEBF0FBECDBF5C01411551056105710587
:100E9000D9F440E350E060E070E0A0960FB6F8941B
:100EA000DEBF0FBECDBFDF91CF911F910F91FF909D
:100EB000EF90DF90CF90BF90AF909F908F907F90FA
:100EC0006F905F904F90BFCF8E010F5F1F4FC12C6F
:100ED000D12C76014801422E512C612C712C8FEFC0
:100EE000C81AD80AE80AF80ACB01BA01A30192018C
:100EF000C6D0CA01F80161938F01A901BC01411557
:100F000051056105710559F7F1E0CF1AD108E108E3
:100F1000F108F401EC0DFD1D80818A3010F440E3EE
:100F200001C047E3480F552747FD5095652F752FA2
:100F3000C50189DF81E0C81AD108E108F108EFEFA7
:100F4000CE16DE06EE06FE0621F7A0960FB6F89442
:100F5000DEBF0FBECDBFDF91CF911F910F91FF90EC
:100F6000EF90DF90CF90BF90AF909F908F907F9049
:100F70006F905F904F900895CF92DF92EF92FF9223
:100F8000CF93DF93EC016A017B012115310539F420
:100F9000DF91CF91FF90EF90DF90CF9054CF2A3028
:100FA000310591F477FF0FC020E030E04DE250E0D2
:100FB00060E070E0E1DFF094E094D094C094C11C54
:100FC000D11CE11CF11C2AE0B701A601CE01DF9182
:100FD000CF91FF90EF90DF90CF903DCF211531055D
:100FE00041F4DC01ED91FC910190F081E02D642F42
:100FF000099431CFCF93DF93EC014DE050E060E0F6
:1010000070E021DF4AE050E060E070E0CE011BDFDD
:1010100082E090E0DF91CF910895CF93DF93EC01D0
:101020009A01AB01662757FD6095762FA5DFCE01AB
:10103000DF91CF91DFCFCF93DF93EC019A01462F61
:1010400050E060E070E0CADFCE01DF91CF91D2CFF7
:10105000AADE6ADACDDAFECF97FB072E16F40094EB
:1010600006D077FD08D02DD007FC05D03EF4909532
:1010700081959F4F0895709561957F4F0895A1E2E6
:101080001A2EAA1BBB1BFD010DC0AA1FBB1FEE1F02
:10109000FF1FA217B307E407F50720F0A21BB30B4D
:1010A000E40BF50B661F771F881F991F1A9469F7C9
:1010B00060957095809590959B01AC01BD01CF0125
:1010C0000895AA1BBB1B51E107C0AA1FBB1FA6178F
:1010D000B70710F0A61BB70B881F991F5A95A9F7E1
:1010E00080959095BC01CD010895EE0FFF1F0590EE
:0A10F000F491E02D0994F894FFCF6D
:1010FA000000D9018000FF5A000000005F04EC06DE
:02110A000407D8
:00000001FF
